{
  "_format": "hh-sol-artifact-1",
  "contractName": "RentableNFT",
  "sourceName": "contracts/RentableNFT.sol",
  "abi": [
    {
      "inputs": [
        {
          "internalType": "string",
          "name": "_name",
          "type": "string"
        },
        {
          "internalType": "string",
          "name": "_symbol",
          "type": "string"
        }
      ],
      "stateMutability": "nonpayable",
      "type": "constructor"
    },
    {
      "anonymous": false,
      "inputs": [
        {
          "indexed": true,
          "internalType": "address",
          "name": "owner",
          "type": "address"
        },
        {
          "indexed": true,
          "internalType": "address",
          "name": "approved",
          "type": "address"
        },
        {
          "indexed": true,
          "internalType": "uint256",
          "name": "tokenId",
          "type": "uint256"
        }
      ],
      "name": "Approval",
      "type": "event"
    },
    {
      "anonymous": false,
      "inputs": [
        {
          "indexed": true,
          "internalType": "address",
          "name": "owner",
          "type": "address"
        },
        {
          "indexed": true,
          "internalType": "address",
          "name": "operator",
          "type": "address"
        },
        {
          "indexed": false,
          "internalType": "bool",
          "name": "approved",
          "type": "bool"
        }
      ],
      "name": "ApprovalForAll",
      "type": "event"
    },
    {
      "anonymous": false,
      "inputs": [
        {
          "indexed": true,
          "internalType": "address",
          "name": "previousOwner",
          "type": "address"
        },
        {
          "indexed": true,
          "internalType": "address",
          "name": "newOwner",
          "type": "address"
        }
      ],
      "name": "OwnershipTransferred",
      "type": "event"
    },
    {
      "anonymous": false,
      "inputs": [
        {
          "indexed": true,
          "internalType": "address",
          "name": "from",
          "type": "address"
        },
        {
          "indexed": true,
          "internalType": "address",
          "name": "to",
          "type": "address"
        },
        {
          "indexed": true,
          "internalType": "uint256",
          "name": "tokenId",
          "type": "uint256"
        }
      ],
      "name": "Transfer",
      "type": "event"
    },
    {
      "anonymous": false,
      "inputs": [
        {
          "indexed": true,
          "internalType": "uint256",
          "name": "tokenId",
          "type": "uint256"
        },
        {
          "indexed": true,
          "internalType": "address",
          "name": "user",
          "type": "address"
        },
        {
          "indexed": false,
          "internalType": "uint256",
          "name": "expires",
          "type": "uint256"
        }
      ],
      "name": "UpdateUser",
      "type": "event"
    },
    {
      "inputs": [
        {
          "internalType": "address",
          "name": "to",
          "type": "address"
        },
        {
          "internalType": "uint256",
          "name": "tokenId",
          "type": "uint256"
        }
      ],
      "name": "approve",
      "outputs": [],
      "stateMutability": "nonpayable",
      "type": "function"
    },
    {
      "inputs": [
        {
          "internalType": "address",
          "name": "owner",
          "type": "address"
        }
      ],
      "name": "balanceOf",
      "outputs": [
        {
          "internalType": "uint256",
          "name": "",
          "type": "uint256"
        }
      ],
      "stateMutability": "view",
      "type": "function"
    },
    {
      "inputs": [],
      "name": "baseAmount",
      "outputs": [
        {
          "internalType": "uint256",
          "name": "",
          "type": "uint256"
        }
      ],
      "stateMutability": "view",
      "type": "function"
    },
    {
      "inputs": [],
      "name": "baseTokenURI",
      "outputs": [
        {
          "internalType": "string",
          "name": "",
          "type": "string"
        }
      ],
      "stateMutability": "view",
      "type": "function"
    },
    {
      "inputs": [
        {
          "internalType": "uint256",
          "name": "tokenId",
          "type": "uint256"
        }
      ],
      "name": "getApproved",
      "outputs": [
        {
          "internalType": "address",
          "name": "",
          "type": "address"
        }
      ],
      "stateMutability": "view",
      "type": "function"
    },
    {
      "inputs": [
        {
          "internalType": "address",
          "name": "owner",
          "type": "address"
        },
        {
          "internalType": "address",
          "name": "operator",
          "type": "address"
        }
      ],
      "name": "isApprovedForAll",
      "outputs": [
        {
          "internalType": "bool",
          "name": "",
          "type": "bool"
        }
      ],
      "stateMutability": "view",
      "type": "function"
    },
    {
      "inputs": [],
      "name": "mint",
      "outputs": [],
      "stateMutability": "nonpayable",
      "type": "function"
    },
    {
      "inputs": [],
      "name": "name",
      "outputs": [
        {
          "internalType": "string",
          "name": "",
          "type": "string"
        }
      ],
      "stateMutability": "view",
      "type": "function"
    },
    {
      "inputs": [],
      "name": "owner",
      "outputs": [
        {
          "internalType": "address",
          "name": "",
          "type": "address"
        }
      ],
      "stateMutability": "view",
      "type": "function"
    },
    {
      "inputs": [
        {
          "internalType": "uint256",
          "name": "tokenId",
          "type": "uint256"
        }
      ],
      "name": "ownerOf",
      "outputs": [
        {
          "internalType": "address",
          "name": "",
          "type": "address"
        }
      ],
      "stateMutability": "view",
      "type": "function"
    },
    {
      "inputs": [],
      "name": "renounceOwnership",
      "outputs": [],
      "stateMutability": "nonpayable",
      "type": "function"
    },
    {
      "inputs": [
        {
          "internalType": "uint256",
          "name": "_tokenId",
          "type": "uint256"
        },
        {
          "internalType": "uint64",
          "name": "_expires",
          "type": "uint64"
        }
      ],
      "name": "rent",
      "outputs": [],
      "stateMutability": "payable",
      "type": "function"
    },
    {
      "inputs": [
        {
          "internalType": "uint256",
          "name": "",
          "type": "uint256"
        }
      ],
      "name": "rentables",
      "outputs": [
        {
          "internalType": "bool",
          "name": "rentable",
          "type": "bool"
        },
        {
          "internalType": "uint256",
          "name": "amountPerMinute",
          "type": "uint256"
        }
      ],
      "stateMutability": "view",
      "type": "function"
    },
    {
      "inputs": [
        {
          "internalType": "address",
          "name": "from",
          "type": "address"
        },
        {
          "internalType": "address",
          "name": "to",
          "type": "address"
        },
        {
          "internalType": "uint256",
          "name": "tokenId",
          "type": "uint256"
        }
      ],
      "name": "safeTransferFrom",
      "outputs": [],
      "stateMutability": "nonpayable",
      "type": "function"
    },
    {
      "inputs": [
        {
          "internalType": "address",
          "name": "from",
          "type": "address"
        },
        {
          "internalType": "address",
          "name": "to",
          "type": "address"
        },
        {
          "internalType": "uint256",
          "name": "tokenId",
          "type": "uint256"
        },
        {
          "internalType": "bytes",
          "name": "data",
          "type": "bytes"
        }
      ],
      "name": "safeTransferFrom",
      "outputs": [],
      "stateMutability": "nonpayable",
      "type": "function"
    },
    {
      "inputs": [
        {
          "internalType": "address",
          "name": "operator",
          "type": "address"
        },
        {
          "internalType": "bool",
          "name": "approved",
          "type": "bool"
        }
      ],
      "name": "setApprovalForAll",
      "outputs": [],
      "stateMutability": "nonpayable",
      "type": "function"
    },
    {
      "inputs": [
        {
          "internalType": "string",
          "name": "_baseTokenURI",
          "type": "string"
        }
      ],
      "name": "setBaseTokenURI",
      "outputs": [],
      "stateMutability": "nonpayable",
      "type": "function"
    },
    {
      "inputs": [
        {
          "internalType": "uint256",
          "name": "_tokenId",
          "type": "uint256"
        },
        {
          "internalType": "uint256",
          "name": "_amountPerMinute",
          "type": "uint256"
        }
      ],
      "name": "setRentFee",
      "outputs": [],
      "stateMutability": "nonpayable",
      "type": "function"
    },
    {
      "inputs": [
        {
          "internalType": "uint256",
          "name": "_tokenId",
          "type": "uint256"
        },
        {
          "internalType": "bool",
          "name": "_rentable",
          "type": "bool"
        }
      ],
      "name": "setRentable",
      "outputs": [],
      "stateMutability": "nonpayable",
      "type": "function"
    },
    {
      "inputs": [
        {
          "internalType": "uint256",
          "name": "tokenId",
          "type": "uint256"
        },
        {
          "internalType": "address",
          "name": "user",
          "type": "address"
        },
        {
          "internalType": "uint64",
          "name": "expires",
          "type": "uint64"
        }
      ],
      "name": "setUser",
      "outputs": [],
      "stateMutability": "nonpayable",
      "type": "function"
    },
    {
      "inputs": [
        {
          "internalType": "bytes4",
          "name": "interfaceId",
          "type": "bytes4"
        }
      ],
      "name": "supportsInterface",
      "outputs": [
        {
          "internalType": "bool",
          "name": "",
          "type": "bool"
        }
      ],
      "stateMutability": "view",
      "type": "function"
    },
    {
      "inputs": [],
      "name": "symbol",
      "outputs": [
        {
          "internalType": "string",
          "name": "",
          "type": "string"
        }
      ],
      "stateMutability": "view",
      "type": "function"
    },
    {
      "inputs": [
        {
          "internalType": "uint256",
          "name": "tokenId",
          "type": "uint256"
        }
      ],
      "name": "tokenURI",
      "outputs": [
        {
          "internalType": "string",
          "name": "",
          "type": "string"
        }
      ],
      "stateMutability": "view",
      "type": "function"
    },
    {
      "inputs": [
        {
          "internalType": "address",
          "name": "from",
          "type": "address"
        },
        {
          "internalType": "address",
          "name": "to",
          "type": "address"
        },
        {
          "internalType": "uint256",
          "name": "tokenId",
          "type": "uint256"
        }
      ],
      "name": "transferFrom",
      "outputs": [],
      "stateMutability": "nonpayable",
      "type": "function"
    },
    {
      "inputs": [
        {
          "internalType": "address",
          "name": "newOwner",
          "type": "address"
        }
      ],
      "name": "transferOwnership",
      "outputs": [],
      "stateMutability": "nonpayable",
      "type": "function"
    },
    {
      "inputs": [
        {
          "internalType": "uint256",
          "name": "tokenId",
          "type": "uint256"
        }
      ],
      "name": "userExpires",
      "outputs": [
        {
          "internalType": "uint256",
          "name": "",
          "type": "uint256"
        }
      ],
      "stateMutability": "view",
      "type": "function"
    },
    {
      "inputs": [
        {
          "internalType": "uint256",
          "name": "tokenId",
          "type": "uint256"
        }
      ],
      "name": "userOf",
      "outputs": [
        {
          "internalType": "address",
          "name": "",
          "type": "address"
        }
      ],
      "stateMutability": "view",
      "type": "function"
    }
  ],
  "bytecode": "0x60806040526512309ce54000600a553480156200001b57600080fd5b506040516200405a3803806200405a8339818101604052810190620000419190620003f0565b8181818181600090805190602001906200005d929190620001a3565b50806001908051906020019062000076929190620001a3565b50505050506200009b6200008f620000d560201b60201c565b620000dd60201b60201c565b6040518060800160405280605c815260200162003ffe605c913960099080519060200190620000cc929190620001a3565b505050620004da565b600033905090565b6000600760009054906101000a900473ffffffffffffffffffffffffffffffffffffffff16905081600760006101000a81548173ffffffffffffffffffffffffffffffffffffffff021916908373ffffffffffffffffffffffffffffffffffffffff1602179055508173ffffffffffffffffffffffffffffffffffffffff168173ffffffffffffffffffffffffffffffffffffffff167f8be0079c531659141344cd1fd0a4f28419497f9722a3daafe3b4186f6b6457e060405160405180910390a35050565b828054620001b190620004a4565b90600052602060002090601f016020900481019282620001d5576000855562000221565b82601f10620001f057805160ff191683800117855562000221565b8280016001018555821562000221579182015b828111156200022057825182559160200191906001019062000203565b5b50905062000230919062000234565b5090565b5b808211156200024f57600081600090555060010162000235565b5090565b6000604051905090565b600080fd5b600080fd5b600080fd5b600080fd5b6000601f19601f8301169050919050565b7f4e487b7100000000000000000000000000000000000000000000000000000000600052604160045260246000fd5b620002bc8262000271565b810181811067ffffffffffffffff82111715620002de57620002dd62000282565b5b80604052505050565b6000620002f362000253565b9050620003018282620002b1565b919050565b600067ffffffffffffffff82111562000324576200032362000282565b5b6200032f8262000271565b9050602081019050919050565b60005b838110156200035c5780820151818401526020810190506200033f565b838111156200036c576000848401525b50505050565b600062000389620003838462000306565b620002e7565b905082815260208101848484011115620003a857620003a76200026c565b5b620003b58482856200033c565b509392505050565b600082601f830112620003d557620003d462000267565b5b8151620003e784826020860162000372565b91505092915050565b600080604083850312156200040a57620004096200025d565b5b600083015167ffffffffffffffff8111156200042b576200042a62000262565b5b6200043985828601620003bd565b925050602083015167ffffffffffffffff8111156200045d576200045c62000262565b5b6200046b85828601620003bd565b9150509250929050565b7f4e487b7100000000000000000000000000000000000000000000000000000000600052602260045260246000fd5b60006002820490506001821680620004bd57607f821691505b60208210811415620004d457620004d362000475565b5b50919050565b613b1480620004ea6000396000f3fe60806040526004361061019c5760003560e01c8063715018a6116100ec578063b88d4fde1161008a578063d547cfb711610064578063d547cfb7146105c8578063e030565e146105f3578063e985e9c51461061c578063f2fde38b146106595761019c565b8063b88d4fde14610525578063c2f1f14a1461054e578063c87b56dd1461058b5761019c565b80638fc88c48116100c65780638fc88c481461045657806395d89b41146104935780639874cd97146104be578063a22cb465146104fc5761019c565b8063715018a6146103eb57806374d3cba6146104025780638da5cb5b1461042b5761019c565b80632ed2d4291161015957806342842e0e1161013357806342842e0e1461031d5780634864d140146103465780636352211e1461037157806370a08231146103ae5761019c565b80632ed2d429146102af57806330176e13146102cb57806341ee1845146102f45761019c565b806301ffc9a7146101a157806306fdde03146101de578063081812fc14610209578063095ea7b3146102465780631249c58b1461026f57806323b872dd14610286575b600080fd5b3480156101ad57600080fd5b506101c860048036038101906101c3919061255f565b610682565b6040516101d591906125a7565b60405180910390f35b3480156101ea57600080fd5b506101f36106fc565b604051610200919061265b565b60405180910390f35b34801561021557600080fd5b50610230600480360381019061022b91906126b3565b61078e565b60405161023d9190612721565b60405180910390f35b34801561025257600080fd5b5061026d60048036038101906102689190612768565b6107d4565b005b34801561027b57600080fd5b506102846108ec565b005b34801561029257600080fd5b506102ad60048036038101906102a891906127a8565b61097a565b005b6102c960048036038101906102c4919061283b565b6109da565b005b3480156102d757600080fd5b506102f260048036038101906102ed91906129b0565b610c4e565b005b34801561030057600080fd5b5061031b60048036038101906103169190612a25565b610c70565b005b34801561032957600080fd5b50610344600480360381019061033f91906127a8565b610cf2565b005b34801561035257600080fd5b5061035b610d12565b6040516103689190612a74565b60405180910390f35b34801561037d57600080fd5b50610398600480360381019061039391906126b3565b610d18565b6040516103a59190612721565b60405180910390f35b3480156103ba57600080fd5b506103d560048036038101906103d09190612a8f565b610dca565b6040516103e29190612a74565b60405180910390f35b3480156103f757600080fd5b50610400610e82565b005b34801561040e57600080fd5b5061042960048036038101906104249190612abc565b610e96565b005b34801561043757600080fd5b50610440610f05565b60405161044d9190612721565b60405180910390f35b34801561046257600080fd5b5061047d600480360381019061047891906126b3565b610f2f565b60405161048a9190612a74565b60405180910390f35b34801561049f57600080fd5b506104a8610f4f565b6040516104b5919061265b565b60405180910390f35b3480156104ca57600080fd5b506104e560048036038101906104e091906126b3565b610fe1565b6040516104f3929190612afc565b60405180910390f35b34801561050857600080fd5b50610523600480360381019061051e9190612b25565b611012565b005b34801561053157600080fd5b5061054c60048036038101906105479190612c06565b611028565b005b34801561055a57600080fd5b50610575600480360381019061057091906126b3565b61108a565b6040516105829190612721565b60405180910390f35b34801561059757600080fd5b506105b260048036038101906105ad91906126b3565b6110f1565b6040516105bf919061265b565b60405180910390f35b3480156105d457600080fd5b506105dd611159565b6040516105ea919061265b565b60405180910390f35b3480156105ff57600080fd5b5061061a60048036038101906106159190612c89565b6111e7565b005b34801561062857600080fd5b50610643600480360381019061063e9190612cdc565b6112f2565b60405161065091906125a7565b60405180910390f35b34801561066557600080fd5b50610680600480360381019061067b9190612a8f565b611386565b005b60007fad092b5c000000000000000000000000000000000000000000000000000000007bffffffffffffffffffffffffffffffffffffffffffffffffffffffff1916827bffffffffffffffffffffffffffffffffffffffffffffffffffffffff191614806106f557506106f48261140a565b5b9050919050565b60606000805461070b90612d4b565b80601f016020809104026020016040519081016040528092919081815260200182805461073790612d4b565b80156107845780601f1061075957610100808354040283529160200191610784565b820191906000526020600020905b81548152906001019060200180831161076757829003601f168201915b5050505050905090565b6000610799826114ec565b6004600083815260200190815260200160002060009054906101000a900473ffffffffffffffffffffffffffffffffffffffff169050919050565b60006107df82610d18565b90508073ffffffffffffffffffffffffffffffffffffffff168373ffffffffffffffffffffffffffffffffffffffff161415610850576040517f08c379a000000000000000000000000000000000000000000000000000000000815260040161084790612def565b60405180910390fd5b8073ffffffffffffffffffffffffffffffffffffffff1661086f611537565b73ffffffffffffffffffffffffffffffffffffffff16148061089e575061089d81610898611537565b6112f2565b5b6108dd576040517f08c379a00000000000000000000000000000000000000000000000000000000081526004016108d490612e81565b60405180910390fd5b6108e7838361153f565b505050565b6108f46115f8565b6108fe6008611676565b600061090a600861168c565b905061091d610917610f05565b8261169a565b6040518060400160405280600015158152602001600a54815250600b600083815260200190815260200160002060008201518160000160006101000a81548160ff0219169083151502179055506020820151816001015590505050565b61098b610985611537565b826116b8565b6109ca576040517f08c379a00000000000000000000000000000000000000000000000000000000081526004016109c190612f13565b60405180910390fd5b6109d583838361174d565b505050565b60008167ffffffffffffffff16600b600085815260200190815260200160002060010154610a089190612f62565b9050803414610a4c576040517f08c379a0000000000000000000000000000000000000000000000000000000008152600401610a4390613008565b60405180910390fd5b600073ffffffffffffffffffffffffffffffffffffffff16610a6d8461108a565b73ffffffffffffffffffffffffffffffffffffffff1614610ac3576040517f08c379a0000000000000000000000000000000000000000000000000000000008152600401610aba90613074565b60405180910390fd5b600b600084815260200190815260200160002060000160009054906101000a900460ff16610b26576040517f08c379a0000000000000000000000000000000000000000000000000000000008152600401610b1d906130e0565b60405180910390fd5b610b2f83610d18565b73ffffffffffffffffffffffffffffffffffffffff166108fc829081150290604051600060405180830381858888f19350505050158015610b74573d6000803e3d6000fd5b506000600660008581526020019081526020016000209050338160000160006101000a81548173ffffffffffffffffffffffffffffffffffffffff021916908373ffffffffffffffffffffffffffffffffffffffff160217905550603c83610bdc9190613100565b67ffffffffffffffff1642610bf19190613142565b81600101819055503373ffffffffffffffffffffffffffffffffffffffff16847fd0d4d2465fbaaa658444f22a71af0576dc66d910f58504ac3091a8f2e7e0462d85604051610c4091906131d3565b60405180910390a350505050565b610c566115f8565b8060099080519060200190610c6c929190612450565b5050565b610c81610c7b611537565b836116b8565b610cc0576040517f08c379a0000000000000000000000000000000000000000000000000000000008152600401610cb790613260565b60405180910390fd5b80600b600084815260200190815260200160002060000160006101000a81548160ff0219169083151502179055505050565b610d0d83838360405180602001604052806000815250611028565b505050565b600a5481565b6000806002600084815260200190815260200160002060009054906101000a900473ffffffffffffffffffffffffffffffffffffffff169050600073ffffffffffffffffffffffffffffffffffffffff168173ffffffffffffffffffffffffffffffffffffffff161415610dc1576040517f08c379a0000000000000000000000000000000000000000000000000000000008152600401610db8906132cc565b60405180910390fd5b80915050919050565b60008073ffffffffffffffffffffffffffffffffffffffff168273ffffffffffffffffffffffffffffffffffffffff161415610e3b576040517f08c379a0000000000000000000000000000000000000000000000000000000008152600401610e329061335e565b60405180910390fd5b600360008373ffffffffffffffffffffffffffffffffffffffff1673ffffffffffffffffffffffffffffffffffffffff168152602001908152602001600020549050919050565b610e8a6115f8565b610e9460006119b4565b565b610ea7610ea1611537565b836116b8565b610ee6576040517f08c379a0000000000000000000000000000000000000000000000000000000008152600401610edd90613260565b60405180910390fd5b80600b6000848152602001908152602001600020600101819055505050565b6000600760009054906101000a900473ffffffffffffffffffffffffffffffffffffffff16905090565b600060066000838152602001908152602001600020600101549050919050565b606060018054610f5e90612d4b565b80601f0160208091040260200160405190810160405280929190818152602001828054610f8a90612d4b565b8015610fd75780601f10610fac57610100808354040283529160200191610fd7565b820191906000526020600020905b815481529060010190602001808311610fba57829003601f168201915b5050505050905090565b600b6020528060005260406000206000915090508060000160009054906101000a900460ff16908060010154905082565b61102461101d611537565b8383611a7a565b5050565b611039611033611537565b836116b8565b611078576040517f08c379a000000000000000000000000000000000000000000000000000000000815260040161106f90612f13565b60405180910390fd5b61108484848484611be7565b50505050565b6000426006600084815260200190815260200160002060010154106110e7576006600083815260200190815260200160002060000160009054906101000a900473ffffffffffffffffffffffffffffffffffffffff1690506110ec565b600090505b919050565b60606110fc826114ec565b6000611106611c43565b905060008151116111265760405180602001604052806000815250611151565b8061113084611cd5565b6040516020016111419291906133ba565b6040516020818303038152906040525b915050919050565b6009805461116690612d4b565b80601f016020809104026020016040519081016040528092919081815260200182805461119290612d4b565b80156111df5780601f106111b4576101008083540402835291602001916111df565b820191906000526020600020905b8154815290600101906020018083116111c257829003601f168201915b505050505081565b6111f133846116b8565b611230576040517f08c379a000000000000000000000000000000000000000000000000000000000815260040161122790613450565b60405180910390fd5b6000600660008581526020019081526020016000209050828160000160006101000a81548173ffffffffffffffffffffffffffffffffffffffff021916908373ffffffffffffffffffffffffffffffffffffffff1602179055508167ffffffffffffffff1681600101819055508273ffffffffffffffffffffffffffffffffffffffff16847fd0d4d2465fbaaa658444f22a71af0576dc66d910f58504ac3091a8f2e7e0462d846040516112e491906131d3565b60405180910390a350505050565b6000600560008473ffffffffffffffffffffffffffffffffffffffff1673ffffffffffffffffffffffffffffffffffffffff16815260200190815260200160002060008373ffffffffffffffffffffffffffffffffffffffff1673ffffffffffffffffffffffffffffffffffffffff16815260200190815260200160002060009054906101000a900460ff16905092915050565b61138e6115f8565b600073ffffffffffffffffffffffffffffffffffffffff168173ffffffffffffffffffffffffffffffffffffffff1614156113fe576040517f08c379a00000000000000000000000000000000000000000000000000000000081526004016113f5906134e2565b60405180910390fd5b611407816119b4565b50565b60007f80ac58cd000000000000000000000000000000000000000000000000000000007bffffffffffffffffffffffffffffffffffffffffffffffffffffffff1916827bffffffffffffffffffffffffffffffffffffffffffffffffffffffff191614806114d557507f5b5e139f000000000000000000000000000000000000000000000000000000007bffffffffffffffffffffffffffffffffffffffffffffffffffffffff1916827bffffffffffffffffffffffffffffffffffffffffffffffffffffffff1916145b806114e557506114e482611e36565b5b9050919050565b6114f581611ea0565b611534576040517f08c379a000000000000000000000000000000000000000000000000000000000815260040161152b906132cc565b60405180910390fd5b50565b600033905090565b816004600083815260200190815260200160002060006101000a81548173ffffffffffffffffffffffffffffffffffffffff021916908373ffffffffffffffffffffffffffffffffffffffff160217905550808273ffffffffffffffffffffffffffffffffffffffff166115b283610d18565b73ffffffffffffffffffffffffffffffffffffffff167f8c5be1e5ebec7d5bd14f71427d1e84f3dd0314c0f7b2291e5b200ac8c7c3b92560405160405180910390a45050565b611600611537565b73ffffffffffffffffffffffffffffffffffffffff1661161e610f05565b73ffffffffffffffffffffffffffffffffffffffff1614611674576040517f08c379a000000000000000000000000000000000000000000000000000000000815260040161166b9061354e565b60405180910390fd5b565b6001816000016000828254019250508190555050565b600081600001549050919050565b6116b4828260405180602001604052806000815250611f0c565b5050565b6000806116c483610d18565b90508073ffffffffffffffffffffffffffffffffffffffff168473ffffffffffffffffffffffffffffffffffffffff161480611706575061170581856112f2565b5b8061174457508373ffffffffffffffffffffffffffffffffffffffff1661172c8461078e565b73ffffffffffffffffffffffffffffffffffffffff16145b91505092915050565b8273ffffffffffffffffffffffffffffffffffffffff1661176d82610d18565b73ffffffffffffffffffffffffffffffffffffffff16146117c3576040517f08c379a00000000000000000000000000000000000000000000000000000000081526004016117ba906135e0565b60405180910390fd5b600073ffffffffffffffffffffffffffffffffffffffff168273ffffffffffffffffffffffffffffffffffffffff161415611833576040517f08c379a000000000000000000000000000000000000000000000000000000000815260040161182a90613672565b60405180910390fd5b61183e838383611f67565b61184960008261153f565b6001600360008573ffffffffffffffffffffffffffffffffffffffff1673ffffffffffffffffffffffffffffffffffffffff16815260200190815260200160002060008282546118999190613692565b925050819055506001600360008473ffffffffffffffffffffffffffffffffffffffff1673ffffffffffffffffffffffffffffffffffffffff16815260200190815260200160002060008282546118f09190613142565b92505081905550816002600083815260200190815260200160002060006101000a81548173ffffffffffffffffffffffffffffffffffffffff021916908373ffffffffffffffffffffffffffffffffffffffff160217905550808273ffffffffffffffffffffffffffffffffffffffff168473ffffffffffffffffffffffffffffffffffffffff167fddf252ad1be2c89b69c2b068fc378daa952ba7f163c4a11628f55a4df523b3ef60405160405180910390a46119af8383836120b2565b505050565b6000600760009054906101000a900473ffffffffffffffffffffffffffffffffffffffff16905081600760006101000a81548173ffffffffffffffffffffffffffffffffffffffff021916908373ffffffffffffffffffffffffffffffffffffffff1602179055508173ffffffffffffffffffffffffffffffffffffffff168173ffffffffffffffffffffffffffffffffffffffff167f8be0079c531659141344cd1fd0a4f28419497f9722a3daafe3b4186f6b6457e060405160405180910390a35050565b8173ffffffffffffffffffffffffffffffffffffffff168373ffffffffffffffffffffffffffffffffffffffff161415611ae9576040517f08c379a0000000000000000000000000000000000000000000000000000000008152600401611ae090613712565b60405180910390fd5b80600560008573ffffffffffffffffffffffffffffffffffffffff1673ffffffffffffffffffffffffffffffffffffffff16815260200190815260200160002060008473ffffffffffffffffffffffffffffffffffffffff1673ffffffffffffffffffffffffffffffffffffffff16815260200190815260200160002060006101000a81548160ff0219169083151502179055508173ffffffffffffffffffffffffffffffffffffffff168373ffffffffffffffffffffffffffffffffffffffff167f17307eab39ab6107e8899845ad3d59bd9653f200f220920489ca2b5937696c3183604051611bda91906125a7565b60405180910390a3505050565b611bf284848461174d565b611bfe848484846120b7565b611c3d576040517f08c379a0000000000000000000000000000000000000000000000000000000008152600401611c34906137a4565b60405180910390fd5b50505050565b606060098054611c5290612d4b565b80601f0160208091040260200160405190810160405280929190818152602001828054611c7e90612d4b565b8015611ccb5780601f10611ca057610100808354040283529160200191611ccb565b820191906000526020600020905b815481529060010190602001808311611cae57829003601f168201915b5050505050905090565b60606000821415611d1d576040518060400160405280600181526020017f30000000000000000000000000000000000000000000000000000000000000008152509050611e31565b600082905060005b60008214611d4f578080611d38906137c4565b915050600a82611d48919061383c565b9150611d25565b60008167ffffffffffffffff811115611d6b57611d6a612885565b5b6040519080825280601f01601f191660200182016040528015611d9d5781602001600182028036833780820191505090505b5090505b60008514611e2a57600182611db69190613692565b9150600a85611dc5919061386d565b6030611dd19190613142565b60f81b818381518110611de757611de661389e565b5b60200101907effffffffffffffffffffffffffffffffffffffffffffffffffffffffffffff1916908160001a905350600a85611e23919061383c565b9450611da1565b8093505050505b919050565b60007f01ffc9a7000000000000000000000000000000000000000000000000000000007bffffffffffffffffffffffffffffffffffffffffffffffffffffffff1916827bffffffffffffffffffffffffffffffffffffffffffffffffffffffff1916149050919050565b60008073ffffffffffffffffffffffffffffffffffffffff166002600084815260200190815260200160002060009054906101000a900473ffffffffffffffffffffffffffffffffffffffff1673ffffffffffffffffffffffffffffffffffffffff1614159050919050565b611f16838361224e565b611f2360008484846120b7565b611f62576040517f08c379a0000000000000000000000000000000000000000000000000000000008152600401611f59906137a4565b60405180910390fd5b505050565b611f72838383612428565b8173ffffffffffffffffffffffffffffffffffffffff168373ffffffffffffffffffffffffffffffffffffffff16141580156120115750600073ffffffffffffffffffffffffffffffffffffffff166006600083815260200190815260200160002060000160009054906101000a900473ffffffffffffffffffffffffffffffffffffffff1673ffffffffffffffffffffffffffffffffffffffff1614155b156120ad5760066000828152602001908152602001600020600080820160006101000a81549073ffffffffffffffffffffffffffffffffffffffff021916905560018201600090555050600073ffffffffffffffffffffffffffffffffffffffff16817fd0d4d2465fbaaa658444f22a71af0576dc66d910f58504ac3091a8f2e7e0462d60006040516120a49190613908565b60405180910390a35b505050565b505050565b60006120d88473ffffffffffffffffffffffffffffffffffffffff1661242d565b15612241578373ffffffffffffffffffffffffffffffffffffffff1663150b7a02612101611537565b8786866040518563ffffffff1660e01b81526004016121239493929190613978565b602060405180830381600087803b15801561213d57600080fd5b505af192505050801561216e57506040513d601f19601f8201168201806040525081019061216b91906139d9565b60015b6121f1573d806000811461219e576040519150601f19603f3d011682016040523d82523d6000602084013e6121a3565b606091505b506000815114156121e9576040517f08c379a00000000000000000000000000000000000000000000000000000000081526004016121e0906137a4565b60405180910390fd5b805181602001fd5b63150b7a0260e01b7bffffffffffffffffffffffffffffffffffffffffffffffffffffffff1916817bffffffffffffffffffffffffffffffffffffffffffffffffffffffff191614915050612246565b600190505b949350505050565b600073ffffffffffffffffffffffffffffffffffffffff168273ffffffffffffffffffffffffffffffffffffffff1614156122be576040517f08c379a00000000000000000000000000000000000000000000000000000000081526004016122b590613a52565b60405180910390fd5b6122c781611ea0565b15612307576040517f08c379a00000000000000000000000000000000000000000000000000000000081526004016122fe90613abe565b60405180910390fd5b61231360008383611f67565b6001600360008473ffffffffffffffffffffffffffffffffffffffff1673ffffffffffffffffffffffffffffffffffffffff16815260200190815260200160002060008282546123639190613142565b92505081905550816002600083815260200190815260200160002060006101000a81548173ffffffffffffffffffffffffffffffffffffffff021916908373ffffffffffffffffffffffffffffffffffffffff160217905550808273ffffffffffffffffffffffffffffffffffffffff16600073ffffffffffffffffffffffffffffffffffffffff167fddf252ad1be2c89b69c2b068fc378daa952ba7f163c4a11628f55a4df523b3ef60405160405180910390a4612424600083836120b2565b5050565b505050565b6000808273ffffffffffffffffffffffffffffffffffffffff163b119050919050565b82805461245c90612d4b565b90600052602060002090601f01602090048101928261247e57600085556124c5565b82601f1061249757805160ff19168380011785556124c5565b828001600101855582156124c5579182015b828111156124c45782518255916020019190600101906124a9565b5b5090506124d291906124d6565b5090565b5b808211156124ef5760008160009055506001016124d7565b5090565b6000604051905090565b600080fd5b600080fd5b60007fffffffff0000000000000000000000000000000000000000000000000000000082169050919050565b61253c81612507565b811461254757600080fd5b50565b60008135905061255981612533565b92915050565b600060208284031215612575576125746124fd565b5b60006125838482850161254a565b91505092915050565b60008115159050919050565b6125a18161258c565b82525050565b60006020820190506125bc6000830184612598565b92915050565b600081519050919050565b600082825260208201905092915050565b60005b838110156125fc5780820151818401526020810190506125e1565b8381111561260b576000848401525b50505050565b6000601f19601f8301169050919050565b600061262d826125c2565b61263781856125cd565b93506126478185602086016125de565b61265081612611565b840191505092915050565b600060208201905081810360008301526126758184612622565b905092915050565b6000819050919050565b6126908161267d565b811461269b57600080fd5b50565b6000813590506126ad81612687565b92915050565b6000602082840312156126c9576126c86124fd565b5b60006126d78482850161269e565b91505092915050565b600073ffffffffffffffffffffffffffffffffffffffff82169050919050565b600061270b826126e0565b9050919050565b61271b81612700565b82525050565b60006020820190506127366000830184612712565b92915050565b61274581612700565b811461275057600080fd5b50565b6000813590506127628161273c565b92915050565b6000806040838503121561277f5761277e6124fd565b5b600061278d85828601612753565b925050602061279e8582860161269e565b9150509250929050565b6000806000606084860312156127c1576127c06124fd565b5b60006127cf86828701612753565b93505060206127e086828701612753565b92505060406127f18682870161269e565b9150509250925092565b600067ffffffffffffffff82169050919050565b612818816127fb565b811461282357600080fd5b50565b6000813590506128358161280f565b92915050565b60008060408385031215612852576128516124fd565b5b60006128608582860161269e565b925050602061287185828601612826565b9150509250929050565b600080fd5b600080fd5b7f4e487b7100000000000000000000000000000000000000000000000000000000600052604160045260246000fd5b6128bd82612611565b810181811067ffffffffffffffff821117156128dc576128db612885565b5b80604052505050565b60006128ef6124f3565b90506128fb82826128b4565b919050565b600067ffffffffffffffff82111561291b5761291a612885565b5b61292482612611565b9050602081019050919050565b82818337600083830152505050565b600061295361294e84612900565b6128e5565b90508281526020810184848401111561296f5761296e612880565b5b61297a848285612931565b509392505050565b600082601f8301126129975761299661287b565b5b81356129a7848260208601612940565b91505092915050565b6000602082840312156129c6576129c56124fd565b5b600082013567ffffffffffffffff8111156129e4576129e3612502565b5b6129f084828501612982565b91505092915050565b612a028161258c565b8114612a0d57600080fd5b50565b600081359050612a1f816129f9565b92915050565b60008060408385031215612a3c57612a3b6124fd565b5b6000612a4a8582860161269e565b9250506020612a5b85828601612a10565b9150509250929050565b612a6e8161267d565b82525050565b6000602082019050612a896000830184612a65565b92915050565b600060208284031215612aa557612aa46124fd565b5b6000612ab384828501612753565b91505092915050565b60008060408385031215612ad357612ad26124fd565b5b6000612ae18582860161269e565b9250506020612af28582860161269e565b9150509250929050565b6000604082019050612b116000830185612598565b612b1e6020830184612a65565b9392505050565b60008060408385031215612b3c57612b3b6124fd565b5b6000612b4a85828601612753565b9250506020612b5b85828601612a10565b9150509250929050565b600067ffffffffffffffff821115612b8057612b7f612885565b5b612b8982612611565b9050602081019050919050565b6000612ba9612ba484612b65565b6128e5565b905082815260208101848484011115612bc557612bc4612880565b5b612bd0848285612931565b509392505050565b600082601f830112612bed57612bec61287b565b5b8135612bfd848260208601612b96565b91505092915050565b60008060008060808587031215612c2057612c1f6124fd565b5b6000612c2e87828801612753565b9450506020612c3f87828801612753565b9350506040612c508782880161269e565b925050606085013567ffffffffffffffff811115612c7157612c70612502565b5b612c7d87828801612bd8565b91505092959194509250565b600080600060608486031215612ca257612ca16124fd565b5b6000612cb08682870161269e565b9350506020612cc186828701612753565b9250506040612cd286828701612826565b9150509250925092565b60008060408385031215612cf357612cf26124fd565b5b6000612d0185828601612753565b9250506020612d1285828601612753565b9150509250929050565b7f4e487b7100000000000000000000000000000000000000000000000000000000600052602260045260246000fd5b60006002820490506001821680612d6357607f821691505b60208210811415612d7757612d76612d1c565b5b50919050565b7f4552433732313a20617070726f76616c20746f2063757272656e74206f776e6560008201527f7200000000000000000000000000000000000000000000000000000000000000602082015250565b6000612dd96021836125cd565b9150612de482612d7d565b604082019050919050565b60006020820190508181036000830152612e0881612dcc565b9050919050565b7f4552433732313a20617070726f76652063616c6c6572206973206e6f7420746f60008201527f6b656e206f776e6572206e6f7220617070726f76656420666f7220616c6c0000602082015250565b6000612e6b603e836125cd565b9150612e7682612e0f565b604082019050919050565b60006020820190508181036000830152612e9a81612e5e565b9050919050565b7f4552433732313a2063616c6c6572206973206e6f7420746f6b656e206f776e6560008201527f72206e6f7220617070726f766564000000000000000000000000000000000000602082015250565b6000612efd602e836125cd565b9150612f0882612ea1565b604082019050919050565b60006020820190508181036000830152612f2c81612ef0565b9050919050565b7f4e487b7100000000000000000000000000000000000000000000000000000000600052601160045260246000fd5b6000612f6d8261267d565b9150612f788361267d565b9250817fffffffffffffffffffffffffffffffffffffffffffffffffffffffffffffffff0483118215151615612fb157612fb0612f33565b5b828202905092915050565b7f556e636f727265637420616d6f756e7400000000000000000000000000000000600082015250565b6000612ff26010836125cd565b9150612ffd82612fbc565b602082019050919050565b6000602082019050818103600083015261302181612fe5565b9050919050565b7f416c72656164792072656e746564000000000000000000000000000000000000600082015250565b600061305e600e836125cd565b915061306982613028565b602082019050919050565b6000602082019050818103600083015261308d81613051565b9050919050565b7f52656e74696e672064697361626c656420666f7220746865204e465400000000600082015250565b60006130ca601c836125cd565b91506130d582613094565b602082019050919050565b600060208201905081810360008301526130f9816130bd565b9050919050565b600061310b826127fb565b9150613116836127fb565b92508167ffffffffffffffff048311821515161561313757613136612f33565b5b828202905092915050565b600061314d8261267d565b91506131588361267d565b9250827fffffffffffffffffffffffffffffffffffffffffffffffffffffffffffffffff0382111561318d5761318c612f33565b5b828201905092915050565b6000819050919050565b60006131bd6131b86131b3846127fb565b613198565b61267d565b9050919050565b6131cd816131a2565b82525050565b60006020820190506131e860008301846131c4565b92915050565b7f43616c6c6572206973206e6f7420746f6b656e206f776e6572206e6f7220617060008201527f70726f7665640000000000000000000000000000000000000000000000000000602082015250565b600061324a6026836125cd565b9150613255826131ee565b604082019050919050565b600060208201905081810360008301526132798161323d565b9050919050565b7f4552433732313a20696e76616c696420746f6b656e2049440000000000000000600082015250565b60006132b66018836125cd565b91506132c182613280565b602082019050919050565b600060208201905081810360008301526132e5816132a9565b9050919050565b7f4552433732313a2061646472657373207a65726f206973206e6f74206120766160008201527f6c6964206f776e65720000000000000000000000000000000000000000000000602082015250565b60006133486029836125cd565b9150613353826132ec565b604082019050919050565b600060208201905081810360008301526133778161333b565b9050919050565b600081905092915050565b6000613394826125c2565b61339e818561337e565b93506133ae8185602086016125de565b80840191505092915050565b60006133c68285613389565b91506133d28284613389565b91508190509392505050565b7f4552433732313a207472616e736665722063616c6c6572206973206e6f74206f60008201527f776e6572206e6f7220617070726f766564000000000000000000000000000000602082015250565b600061343a6031836125cd565b9150613445826133de565b604082019050919050565b600060208201905081810360008301526134698161342d565b9050919050565b7f4f776e61626c653a206e6577206f776e657220697320746865207a65726f206160008201527f6464726573730000000000000000000000000000000000000000000000000000602082015250565b60006134cc6026836125cd565b91506134d782613470565b604082019050919050565b600060208201905081810360008301526134fb816134bf565b9050919050565b7f4f776e61626c653a2063616c6c6572206973206e6f7420746865206f776e6572600082015250565b60006135386020836125cd565b915061354382613502565b602082019050919050565b600060208201905081810360008301526135678161352b565b9050919050565b7f4552433732313a207472616e736665722066726f6d20696e636f72726563742060008201527f6f776e6572000000000000000000000000000000000000000000000000000000602082015250565b60006135ca6025836125cd565b91506135d58261356e565b604082019050919050565b600060208201905081810360008301526135f9816135bd565b9050919050565b7f4552433732313a207472616e7366657220746f20746865207a65726f2061646460008201527f7265737300000000000000000000000000000000000000000000000000000000602082015250565b600061365c6024836125cd565b915061366782613600565b604082019050919050565b6000602082019050818103600083015261368b8161364f565b9050919050565b600061369d8261267d565b91506136a88361267d565b9250828210156136bb576136ba612f33565b5b828203905092915050565b7f4552433732313a20617070726f766520746f2063616c6c657200000000000000600082015250565b60006136fc6019836125cd565b9150613707826136c6565b602082019050919050565b6000602082019050818103600083015261372b816136ef565b9050919050565b7f4552433732313a207472616e7366657220746f206e6f6e20455243373231526560008201527f63656976657220696d706c656d656e7465720000000000000000000000000000602082015250565b600061378e6032836125cd565b915061379982613732565b604082019050919050565b600060208201905081810360008301526137bd81613781565b9050919050565b60006137cf8261267d565b91507fffffffffffffffffffffffffffffffffffffffffffffffffffffffffffffffff82141561380257613801612f33565b5b600182019050919050565b7f4e487b7100000000000000000000000000000000000000000000000000000000600052601260045260246000fd5b60006138478261267d565b91506138528361267d565b9250826138625761386161380d565b5b828204905092915050565b60006138788261267d565b91506138838361267d565b9250826138935761389261380d565b5b828206905092915050565b7f4e487b7100000000000000000000000000000000000000000000000000000000600052603260045260246000fd5b6000819050919050565b60006138f26138ed6138e8846138cd565b613198565b61267d565b9050919050565b613902816138d7565b82525050565b600060208201905061391d60008301846138f9565b92915050565b600081519050919050565b600082825260208201905092915050565b600061394a82613923565b613954818561392e565b93506139648185602086016125de565b61396d81612611565b840191505092915050565b600060808201905061398d6000830187612712565b61399a6020830186612712565b6139a76040830185612a65565b81810360608301526139b9818461393f565b905095945050505050565b6000815190506139d381612533565b92915050565b6000602082840312156139ef576139ee6124fd565b5b60006139fd848285016139c4565b91505092915050565b7f4552433732313a206d696e7420746f20746865207a65726f2061646472657373600082015250565b6000613a3c6020836125cd565b9150613a4782613a06565b602082019050919050565b60006020820190508181036000830152613a6b81613a2f565b9050919050565b7f4552433732313a20746f6b656e20616c7265616479206d696e74656400000000600082015250565b6000613aa8601c836125cd565b9150613ab382613a72565b602082019050919050565b60006020820190508181036000830152613ad781613a9b565b905091905056fea264697066735822122072feb545453e360f2864c66a6f72ff4b741c0604c5fd72b2bffee8d3d9bba6ca64736f6c6343000809003368747470733a2f2f62616679626569637274717771697570667265677a6f756d65637767346277716c646d346a327062706272636c6b6a69776b6f3734636b65717a752e697066732e647765622e6c696e6b2f6d657461646174612f",
  "linkReferences": {},
  "deployedLinkReferences": {}
}