{
  "_format": "hh-sol-artifact-1",
  "contractName": "ERC4907",
  "sourceName": "contracts/ERC4907.sol",
  "abi": [
    {
      "inputs": [
        {
          "internalType": "string",
          "name": "name_",
          "type": "string"
        },
        {
          "internalType": "string",
          "name": "symbol_",
          "type": "string"
        }
      ],
      "stateMutability": "nonpayable",
      "type": "constructor"
    },
    {
      "anonymous": false,
      "inputs": [
        {
          "indexed": true,
          "internalType": "address",
          "name": "owner",
          "type": "address"
        },
        {
          "indexed": true,
          "internalType": "address",
          "name": "approved",
          "type": "address"
        },
        {
          "indexed": true,
          "internalType": "uint256",
          "name": "tokenId",
          "type": "uint256"
        }
      ],
      "name": "Approval",
      "type": "event"
    },
    {
      "anonymous": false,
      "inputs": [
        {
          "indexed": true,
          "internalType": "address",
          "name": "owner",
          "type": "address"
        },
        {
          "indexed": true,
          "internalType": "address",
          "name": "operator",
          "type": "address"
        },
        {
          "indexed": false,
          "internalType": "bool",
          "name": "approved",
          "type": "bool"
        }
      ],
      "name": "ApprovalForAll",
      "type": "event"
    },
    {
      "anonymous": false,
      "inputs": [
        {
          "indexed": true,
          "internalType": "address",
          "name": "from",
          "type": "address"
        },
        {
          "indexed": true,
          "internalType": "address",
          "name": "to",
          "type": "address"
        },
        {
          "indexed": true,
          "internalType": "uint256",
          "name": "tokenId",
          "type": "uint256"
        }
      ],
      "name": "Transfer",
      "type": "event"
    },
    {
      "anonymous": false,
      "inputs": [
        {
          "indexed": true,
          "internalType": "uint256",
          "name": "tokenId",
          "type": "uint256"
        },
        {
          "indexed": true,
          "internalType": "address",
          "name": "user",
          "type": "address"
        },
        {
          "indexed": false,
          "internalType": "uint256",
          "name": "expires",
          "type": "uint256"
        }
      ],
      "name": "UpdateUser",
      "type": "event"
    },
    {
      "inputs": [
        {
          "internalType": "address",
          "name": "to",
          "type": "address"
        },
        {
          "internalType": "uint256",
          "name": "tokenId",
          "type": "uint256"
        }
      ],
      "name": "approve",
      "outputs": [],
      "stateMutability": "nonpayable",
      "type": "function"
    },
    {
      "inputs": [
        {
          "internalType": "address",
          "name": "owner",
          "type": "address"
        }
      ],
      "name": "balanceOf",
      "outputs": [
        {
          "internalType": "uint256",
          "name": "",
          "type": "uint256"
        }
      ],
      "stateMutability": "view",
      "type": "function"
    },
    {
      "inputs": [
        {
          "internalType": "uint256",
          "name": "tokenId",
          "type": "uint256"
        }
      ],
      "name": "getApproved",
      "outputs": [
        {
          "internalType": "address",
          "name": "",
          "type": "address"
        }
      ],
      "stateMutability": "view",
      "type": "function"
    },
    {
      "inputs": [
        {
          "internalType": "address",
          "name": "owner",
          "type": "address"
        },
        {
          "internalType": "address",
          "name": "operator",
          "type": "address"
        }
      ],
      "name": "isApprovedForAll",
      "outputs": [
        {
          "internalType": "bool",
          "name": "",
          "type": "bool"
        }
      ],
      "stateMutability": "view",
      "type": "function"
    },
    {
      "inputs": [],
      "name": "name",
      "outputs": [
        {
          "internalType": "string",
          "name": "",
          "type": "string"
        }
      ],
      "stateMutability": "view",
      "type": "function"
    },
    {
      "inputs": [
        {
          "internalType": "uint256",
          "name": "tokenId",
          "type": "uint256"
        }
      ],
      "name": "ownerOf",
      "outputs": [
        {
          "internalType": "address",
          "name": "",
          "type": "address"
        }
      ],
      "stateMutability": "view",
      "type": "function"
    },
    {
      "inputs": [
        {
          "internalType": "address",
          "name": "from",
          "type": "address"
        },
        {
          "internalType": "address",
          "name": "to",
          "type": "address"
        },
        {
          "internalType": "uint256",
          "name": "tokenId",
          "type": "uint256"
        }
      ],
      "name": "safeTransferFrom",
      "outputs": [],
      "stateMutability": "nonpayable",
      "type": "function"
    },
    {
      "inputs": [
        {
          "internalType": "address",
          "name": "from",
          "type": "address"
        },
        {
          "internalType": "address",
          "name": "to",
          "type": "address"
        },
        {
          "internalType": "uint256",
          "name": "tokenId",
          "type": "uint256"
        },
        {
          "internalType": "bytes",
          "name": "data",
          "type": "bytes"
        }
      ],
      "name": "safeTransferFrom",
      "outputs": [],
      "stateMutability": "nonpayable",
      "type": "function"
    },
    {
      "inputs": [
        {
          "internalType": "address",
          "name": "operator",
          "type": "address"
        },
        {
          "internalType": "bool",
          "name": "approved",
          "type": "bool"
        }
      ],
      "name": "setApprovalForAll",
      "outputs": [],
      "stateMutability": "nonpayable",
      "type": "function"
    },
    {
      "inputs": [
        {
          "internalType": "uint256",
          "name": "tokenId",
          "type": "uint256"
        },
        {
          "internalType": "address",
          "name": "user",
          "type": "address"
        },
        {
          "internalType": "uint64",
          "name": "expires",
          "type": "uint64"
        }
      ],
      "name": "setUser",
      "outputs": [],
      "stateMutability": "nonpayable",
      "type": "function"
    },
    {
      "inputs": [
        {
          "internalType": "bytes4",
          "name": "interfaceId",
          "type": "bytes4"
        }
      ],
      "name": "supportsInterface",
      "outputs": [
        {
          "internalType": "bool",
          "name": "",
          "type": "bool"
        }
      ],
      "stateMutability": "view",
      "type": "function"
    },
    {
      "inputs": [],
      "name": "symbol",
      "outputs": [
        {
          "internalType": "string",
          "name": "",
          "type": "string"
        }
      ],
      "stateMutability": "view",
      "type": "function"
    },
    {
      "inputs": [
        {
          "internalType": "uint256",
          "name": "tokenId",
          "type": "uint256"
        }
      ],
      "name": "tokenURI",
      "outputs": [
        {
          "internalType": "string",
          "name": "",
          "type": "string"
        }
      ],
      "stateMutability": "view",
      "type": "function"
    },
    {
      "inputs": [
        {
          "internalType": "address",
          "name": "from",
          "type": "address"
        },
        {
          "internalType": "address",
          "name": "to",
          "type": "address"
        },
        {
          "internalType": "uint256",
          "name": "tokenId",
          "type": "uint256"
        }
      ],
      "name": "transferFrom",
      "outputs": [],
      "stateMutability": "nonpayable",
      "type": "function"
    },
    {
      "inputs": [
        {
          "internalType": "uint256",
          "name": "tokenId",
          "type": "uint256"
        }
      ],
      "name": "userExpires",
      "outputs": [
        {
          "internalType": "uint256",
          "name": "",
          "type": "uint256"
        }
      ],
      "stateMutability": "view",
      "type": "function"
    },
    {
      "inputs": [
        {
          "internalType": "uint256",
          "name": "tokenId",
          "type": "uint256"
        }
      ],
      "name": "userOf",
      "outputs": [
        {
          "internalType": "address",
          "name": "",
          "type": "address"
        }
      ],
      "stateMutability": "view",
      "type": "function"
    }
  ],
  "bytecode": "0x60806040523480156200001157600080fd5b5060405162002b2738038062002b278339818101604052810190620000379190620002c2565b818181600090805190602001906200005192919062000075565b5080600190805190602001906200006a92919062000075565b5050505050620003ac565b828054620000839062000376565b90600052602060002090601f016020900481019282620000a75760008555620000f3565b82601f10620000c257805160ff1916838001178555620000f3565b82800160010185558215620000f3579182015b82811115620000f2578251825591602001919060010190620000d5565b5b50905062000102919062000106565b5090565b5b808211156200012157600081600090555060010162000107565b5090565b6000604051905090565b600080fd5b600080fd5b600080fd5b600080fd5b6000601f19601f8301169050919050565b7f4e487b7100000000000000000000000000000000000000000000000000000000600052604160045260246000fd5b6200018e8262000143565b810181811067ffffffffffffffff82111715620001b057620001af62000154565b5b80604052505050565b6000620001c562000125565b9050620001d3828262000183565b919050565b600067ffffffffffffffff821115620001f657620001f562000154565b5b620002018262000143565b9050602081019050919050565b60005b838110156200022e57808201518184015260208101905062000211565b838111156200023e576000848401525b50505050565b60006200025b6200025584620001d8565b620001b9565b9050828152602081018484840111156200027a57620002796200013e565b5b620002878482856200020e565b509392505050565b600082601f830112620002a757620002a662000139565b5b8151620002b984826020860162000244565b91505092915050565b60008060408385031215620002dc57620002db6200012f565b5b600083015167ffffffffffffffff811115620002fd57620002fc62000134565b5b6200030b858286016200028f565b925050602083015167ffffffffffffffff8111156200032f576200032e62000134565b5b6200033d858286016200028f565b9150509250929050565b7f4e487b7100000000000000000000000000000000000000000000000000000000600052602260045260246000fd5b600060028204905060018216806200038f57607f821691505b60208210811415620003a657620003a562000347565b5b50919050565b61276b80620003bc6000396000f3fe608060405234801561001057600080fd5b50600436106101005760003560e01c80638fc88c4811610097578063c2f1f14a11610066578063c2f1f14a146102bd578063c87b56dd146102ed578063e030565e1461031d578063e985e9c51461033957610100565b80638fc88c481461023757806395d89b4114610267578063a22cb46514610285578063b88d4fde146102a157610100565b806323b872dd116100d357806323b872dd1461019f57806342842e0e146101bb5780636352211e146101d757806370a082311461020757610100565b806301ffc9a71461010557806306fdde0314610135578063081812fc14610153578063095ea7b314610183575b600080fd5b61011f600480360381019061011a91906117d1565b610369565b60405161012c9190611819565b60405180910390f35b61013d6103e3565b60405161014a91906118cd565b60405180910390f35b61016d60048036038101906101689190611925565b610475565b60405161017a9190611993565b60405180910390f35b61019d600480360381019061019891906119da565b6104bb565b005b6101b960048036038101906101b49190611a1a565b6105d3565b005b6101d560048036038101906101d09190611a1a565b610633565b005b6101f160048036038101906101ec9190611925565b610653565b6040516101fe9190611993565b60405180910390f35b610221600480360381019061021c9190611a6d565b610705565b60405161022e9190611aa9565b60405180910390f35b610251600480360381019061024c9190611925565b6107bd565b60405161025e9190611aa9565b60405180910390f35b61026f6107dd565b60405161027c91906118cd565b60405180910390f35b61029f600480360381019061029a9190611af0565b61086f565b005b6102bb60048036038101906102b69190611c65565b610885565b005b6102d760048036038101906102d29190611925565b6108e7565b6040516102e49190611993565b60405180910390f35b61030760048036038101906103029190611925565b61094e565b60405161031491906118cd565b60405180910390f35b61033760048036038101906103329190611d28565b6109b6565b005b610353600480360381019061034e9190611d7b565b610ac1565b6040516103609190611819565b60405180910390f35b60007fad092b5c000000000000000000000000000000000000000000000000000000007bffffffffffffffffffffffffffffffffffffffffffffffffffffffff1916827bffffffffffffffffffffffffffffffffffffffffffffffffffffffff191614806103dc57506103db82610b55565b5b9050919050565b6060600080546103f290611dea565b80601f016020809104026020016040519081016040528092919081815260200182805461041e90611dea565b801561046b5780601f106104405761010080835404028352916020019161046b565b820191906000526020600020905b81548152906001019060200180831161044e57829003601f168201915b5050505050905090565b600061048082610c37565b6004600083815260200190815260200160002060009054906101000a900473ffffffffffffffffffffffffffffffffffffffff169050919050565b60006104c682610653565b90508073ffffffffffffffffffffffffffffffffffffffff168373ffffffffffffffffffffffffffffffffffffffff161415610537576040517f08c379a000000000000000000000000000000000000000000000000000000000815260040161052e90611e8e565b60405180910390fd5b8073ffffffffffffffffffffffffffffffffffffffff16610556610c82565b73ffffffffffffffffffffffffffffffffffffffff16148061058557506105848161057f610c82565b610ac1565b5b6105c4576040517f08c379a00000000000000000000000000000000000000000000000000000000081526004016105bb90611f20565b60405180910390fd5b6105ce8383610c8a565b505050565b6105e46105de610c82565b82610d43565b610623576040517f08c379a000000000000000000000000000000000000000000000000000000000815260040161061a90611fb2565b60405180910390fd5b61062e838383610dd8565b505050565b61064e83838360405180602001604052806000815250610885565b505050565b6000806002600084815260200190815260200160002060009054906101000a900473ffffffffffffffffffffffffffffffffffffffff169050600073ffffffffffffffffffffffffffffffffffffffff168173ffffffffffffffffffffffffffffffffffffffff1614156106fc576040517f08c379a00000000000000000000000000000000000000000000000000000000081526004016106f39061201e565b60405180910390fd5b80915050919050565b60008073ffffffffffffffffffffffffffffffffffffffff168273ffffffffffffffffffffffffffffffffffffffff161415610776576040517f08c379a000000000000000000000000000000000000000000000000000000000815260040161076d906120b0565b60405180910390fd5b600360008373ffffffffffffffffffffffffffffffffffffffff1673ffffffffffffffffffffffffffffffffffffffff168152602001908152602001600020549050919050565b600060066000838152602001908152602001600020600101549050919050565b6060600180546107ec90611dea565b80601f016020809104026020016040519081016040528092919081815260200182805461081890611dea565b80156108655780601f1061083a57610100808354040283529160200191610865565b820191906000526020600020905b81548152906001019060200180831161084857829003601f168201915b5050505050905090565b61088161087a610c82565b838361103f565b5050565b610896610890610c82565b83610d43565b6108d5576040517f08c379a00000000000000000000000000000000000000000000000000000000081526004016108cc90611fb2565b60405180910390fd5b6108e1848484846111ac565b50505050565b600042600660008481526020019081526020016000206001015410610944576006600083815260200190815260200160002060000160009054906101000a900473ffffffffffffffffffffffffffffffffffffffff169050610949565b600090505b919050565b606061095982610c37565b6000610963611208565b9050600081511161098357604051806020016040528060008152506109ae565b8061098d8461121f565b60405160200161099e92919061210c565b6040516020818303038152906040525b915050919050565b6109c03384610d43565b6109ff576040517f08c379a00000000000000000000000000000000000000000000000000000000081526004016109f6906121a2565b60405180910390fd5b6000600660008581526020019081526020016000209050828160000160006101000a81548173ffffffffffffffffffffffffffffffffffffffff021916908373ffffffffffffffffffffffffffffffffffffffff1602179055508167ffffffffffffffff1681600101819055508273ffffffffffffffffffffffffffffffffffffffff16847fd0d4d2465fbaaa658444f22a71af0576dc66d910f58504ac3091a8f2e7e0462d84604051610ab391906121fd565b60405180910390a350505050565b6000600560008473ffffffffffffffffffffffffffffffffffffffff1673ffffffffffffffffffffffffffffffffffffffff16815260200190815260200160002060008373ffffffffffffffffffffffffffffffffffffffff1673ffffffffffffffffffffffffffffffffffffffff16815260200190815260200160002060009054906101000a900460ff16905092915050565b60007f80ac58cd000000000000000000000000000000000000000000000000000000007bffffffffffffffffffffffffffffffffffffffffffffffffffffffff1916827bffffffffffffffffffffffffffffffffffffffffffffffffffffffff19161480610c2057507f5b5e139f000000000000000000000000000000000000000000000000000000007bffffffffffffffffffffffffffffffffffffffffffffffffffffffff1916827bffffffffffffffffffffffffffffffffffffffffffffffffffffffff1916145b80610c305750610c2f82611380565b5b9050919050565b610c40816113ea565b610c7f576040517f08c379a0000000000000000000000000000000000000000000000000000000008152600401610c769061201e565b60405180910390fd5b50565b600033905090565b816004600083815260200190815260200160002060006101000a81548173ffffffffffffffffffffffffffffffffffffffff021916908373ffffffffffffffffffffffffffffffffffffffff160217905550808273ffffffffffffffffffffffffffffffffffffffff16610cfd83610653565b73ffffffffffffffffffffffffffffffffffffffff167f8c5be1e5ebec7d5bd14f71427d1e84f3dd0314c0f7b2291e5b200ac8c7c3b92560405160405180910390a45050565b600080610d4f83610653565b90508073ffffffffffffffffffffffffffffffffffffffff168473ffffffffffffffffffffffffffffffffffffffff161480610d915750610d908185610ac1565b5b80610dcf57508373ffffffffffffffffffffffffffffffffffffffff16610db784610475565b73ffffffffffffffffffffffffffffffffffffffff16145b91505092915050565b8273ffffffffffffffffffffffffffffffffffffffff16610df882610653565b73ffffffffffffffffffffffffffffffffffffffff1614610e4e576040517f08c379a0000000000000000000000000000000000000000000000000000000008152600401610e459061228a565b60405180910390fd5b600073ffffffffffffffffffffffffffffffffffffffff168273ffffffffffffffffffffffffffffffffffffffff161415610ebe576040517f08c379a0000000000000000000000000000000000000000000000000000000008152600401610eb59061231c565b60405180910390fd5b610ec9838383611456565b610ed4600082610c8a565b6001600360008573ffffffffffffffffffffffffffffffffffffffff1673ffffffffffffffffffffffffffffffffffffffff1681526020019081526020016000206000828254610f24919061236b565b925050819055506001600360008473ffffffffffffffffffffffffffffffffffffffff1673ffffffffffffffffffffffffffffffffffffffff1681526020019081526020016000206000828254610f7b919061239f565b92505081905550816002600083815260200190815260200160002060006101000a81548173ffffffffffffffffffffffffffffffffffffffff021916908373ffffffffffffffffffffffffffffffffffffffff160217905550808273ffffffffffffffffffffffffffffffffffffffff168473ffffffffffffffffffffffffffffffffffffffff167fddf252ad1be2c89b69c2b068fc378daa952ba7f163c4a11628f55a4df523b3ef60405160405180910390a461103a8383836115a1565b505050565b8173ffffffffffffffffffffffffffffffffffffffff168373ffffffffffffffffffffffffffffffffffffffff1614156110ae576040517f08c379a00000000000000000000000000000000000000000000000000000000081526004016110a590612441565b60405180910390fd5b80600560008573ffffffffffffffffffffffffffffffffffffffff1673ffffffffffffffffffffffffffffffffffffffff16815260200190815260200160002060008473ffffffffffffffffffffffffffffffffffffffff1673ffffffffffffffffffffffffffffffffffffffff16815260200190815260200160002060006101000a81548160ff0219169083151502179055508173ffffffffffffffffffffffffffffffffffffffff168373ffffffffffffffffffffffffffffffffffffffff167f17307eab39ab6107e8899845ad3d59bd9653f200f220920489ca2b5937696c318360405161119f9190611819565b60405180910390a3505050565b6111b7848484610dd8565b6111c3848484846115a6565b611202576040517f08c379a00000000000000000000000000000000000000000000000000000000081526004016111f9906124d3565b60405180910390fd5b50505050565b606060405180602001604052806000815250905090565b60606000821415611267576040518060400160405280600181526020017f3000000000000000000000000000000000000000000000000000000000000000815250905061137b565b600082905060005b60008214611299578080611282906124f3565b915050600a82611292919061256b565b915061126f565b60008167ffffffffffffffff8111156112b5576112b4611b3a565b5b6040519080825280601f01601f1916602001820160405280156112e75781602001600182028036833780820191505090505b5090505b6000851461137457600182611300919061236b565b9150600a8561130f919061259c565b603061131b919061239f565b60f81b818381518110611331576113306125cd565b5b60200101907effffffffffffffffffffffffffffffffffffffffffffffffffffffffffffff1916908160001a905350600a8561136d919061256b565b94506112eb565b8093505050505b919050565b60007f01ffc9a7000000000000000000000000000000000000000000000000000000007bffffffffffffffffffffffffffffffffffffffffffffffffffffffff1916827bffffffffffffffffffffffffffffffffffffffffffffffffffffffff1916149050919050565b60008073ffffffffffffffffffffffffffffffffffffffff166002600084815260200190815260200160002060009054906101000a900473ffffffffffffffffffffffffffffffffffffffff1673ffffffffffffffffffffffffffffffffffffffff1614159050919050565b61146183838361173d565b8173ffffffffffffffffffffffffffffffffffffffff168373ffffffffffffffffffffffffffffffffffffffff16141580156115005750600073ffffffffffffffffffffffffffffffffffffffff166006600083815260200190815260200160002060000160009054906101000a900473ffffffffffffffffffffffffffffffffffffffff1673ffffffffffffffffffffffffffffffffffffffff1614155b1561159c5760066000828152602001908152602001600020600080820160006101000a81549073ffffffffffffffffffffffffffffffffffffffff021916905560018201600090555050600073ffffffffffffffffffffffffffffffffffffffff16817fd0d4d2465fbaaa658444f22a71af0576dc66d910f58504ac3091a8f2e7e0462d60006040516115939190612637565b60405180910390a35b505050565b505050565b60006115c78473ffffffffffffffffffffffffffffffffffffffff16611742565b15611730578373ffffffffffffffffffffffffffffffffffffffff1663150b7a026115f0610c82565b8786866040518563ffffffff1660e01b815260040161161294939291906126a7565b602060405180830381600087803b15801561162c57600080fd5b505af192505050801561165d57506040513d601f19601f8201168201806040525081019061165a9190612708565b60015b6116e0573d806000811461168d576040519150601f19603f3d011682016040523d82523d6000602084013e611692565b606091505b506000815114156116d8576040517f08c379a00000000000000000000000000000000000000000000000000000000081526004016116cf906124d3565b60405180910390fd5b805181602001fd5b63150b7a0260e01b7bffffffffffffffffffffffffffffffffffffffffffffffffffffffff1916817bffffffffffffffffffffffffffffffffffffffffffffffffffffffff191614915050611735565b600190505b949350505050565b505050565b6000808273ffffffffffffffffffffffffffffffffffffffff163b119050919050565b6000604051905090565b600080fd5b600080fd5b60007fffffffff0000000000000000000000000000000000000000000000000000000082169050919050565b6117ae81611779565b81146117b957600080fd5b50565b6000813590506117cb816117a5565b92915050565b6000602082840312156117e7576117e661176f565b5b60006117f5848285016117bc565b91505092915050565b60008115159050919050565b611813816117fe565b82525050565b600060208201905061182e600083018461180a565b92915050565b600081519050919050565b600082825260208201905092915050565b60005b8381101561186e578082015181840152602081019050611853565b8381111561187d576000848401525b50505050565b6000601f19601f8301169050919050565b600061189f82611834565b6118a9818561183f565b93506118b9818560208601611850565b6118c281611883565b840191505092915050565b600060208201905081810360008301526118e78184611894565b905092915050565b6000819050919050565b611902816118ef565b811461190d57600080fd5b50565b60008135905061191f816118f9565b92915050565b60006020828403121561193b5761193a61176f565b5b600061194984828501611910565b91505092915050565b600073ffffffffffffffffffffffffffffffffffffffff82169050919050565b600061197d82611952565b9050919050565b61198d81611972565b82525050565b60006020820190506119a86000830184611984565b92915050565b6119b781611972565b81146119c257600080fd5b50565b6000813590506119d4816119ae565b92915050565b600080604083850312156119f1576119f061176f565b5b60006119ff858286016119c5565b9250506020611a1085828601611910565b9150509250929050565b600080600060608486031215611a3357611a3261176f565b5b6000611a41868287016119c5565b9350506020611a52868287016119c5565b9250506040611a6386828701611910565b9150509250925092565b600060208284031215611a8357611a8261176f565b5b6000611a91848285016119c5565b91505092915050565b611aa3816118ef565b82525050565b6000602082019050611abe6000830184611a9a565b92915050565b611acd816117fe565b8114611ad857600080fd5b50565b600081359050611aea81611ac4565b92915050565b60008060408385031215611b0757611b0661176f565b5b6000611b15858286016119c5565b9250506020611b2685828601611adb565b9150509250929050565b600080fd5b600080fd5b7f4e487b7100000000000000000000000000000000000000000000000000000000600052604160045260246000fd5b611b7282611883565b810181811067ffffffffffffffff82111715611b9157611b90611b3a565b5b80604052505050565b6000611ba4611765565b9050611bb08282611b69565b919050565b600067ffffffffffffffff821115611bd057611bcf611b3a565b5b611bd982611883565b9050602081019050919050565b82818337600083830152505050565b6000611c08611c0384611bb5565b611b9a565b905082815260208101848484011115611c2457611c23611b35565b5b611c2f848285611be6565b509392505050565b600082601f830112611c4c57611c4b611b30565b5b8135611c5c848260208601611bf5565b91505092915050565b60008060008060808587031215611c7f57611c7e61176f565b5b6000611c8d878288016119c5565b9450506020611c9e878288016119c5565b9350506040611caf87828801611910565b925050606085013567ffffffffffffffff811115611cd057611ccf611774565b5b611cdc87828801611c37565b91505092959194509250565b600067ffffffffffffffff82169050919050565b611d0581611ce8565b8114611d1057600080fd5b50565b600081359050611d2281611cfc565b92915050565b600080600060608486031215611d4157611d4061176f565b5b6000611d4f86828701611910565b9350506020611d60868287016119c5565b9250506040611d7186828701611d13565b9150509250925092565b60008060408385031215611d9257611d9161176f565b5b6000611da0858286016119c5565b9250506020611db1858286016119c5565b9150509250929050565b7f4e487b7100000000000000000000000000000000000000000000000000000000600052602260045260246000fd5b60006002820490506001821680611e0257607f821691505b60208210811415611e1657611e15611dbb565b5b50919050565b7f4552433732313a20617070726f76616c20746f2063757272656e74206f776e6560008201527f7200000000000000000000000000000000000000000000000000000000000000602082015250565b6000611e7860218361183f565b9150611e8382611e1c565b604082019050919050565b60006020820190508181036000830152611ea781611e6b565b9050919050565b7f4552433732313a20617070726f76652063616c6c6572206973206e6f7420746f60008201527f6b656e206f776e6572206e6f7220617070726f76656420666f7220616c6c0000602082015250565b6000611f0a603e8361183f565b9150611f1582611eae565b604082019050919050565b60006020820190508181036000830152611f3981611efd565b9050919050565b7f4552433732313a2063616c6c6572206973206e6f7420746f6b656e206f776e6560008201527f72206e6f7220617070726f766564000000000000000000000000000000000000602082015250565b6000611f9c602e8361183f565b9150611fa782611f40565b604082019050919050565b60006020820190508181036000830152611fcb81611f8f565b9050919050565b7f4552433732313a20696e76616c696420746f6b656e2049440000000000000000600082015250565b600061200860188361183f565b915061201382611fd2565b602082019050919050565b6000602082019050818103600083015261203781611ffb565b9050919050565b7f4552433732313a2061646472657373207a65726f206973206e6f74206120766160008201527f6c6964206f776e65720000000000000000000000000000000000000000000000602082015250565b600061209a60298361183f565b91506120a58261203e565b604082019050919050565b600060208201905081810360008301526120c98161208d565b9050919050565b600081905092915050565b60006120e682611834565b6120f081856120d0565b9350612100818560208601611850565b80840191505092915050565b600061211882856120db565b915061212482846120db565b91508190509392505050565b7f4552433732313a207472616e736665722063616c6c6572206973206e6f74206f60008201527f776e6572206e6f7220617070726f766564000000000000000000000000000000602082015250565b600061218c60318361183f565b915061219782612130565b604082019050919050565b600060208201905081810360008301526121bb8161217f565b9050919050565b6000819050919050565b60006121e76121e26121dd84611ce8565b6121c2565b6118ef565b9050919050565b6121f7816121cc565b82525050565b600060208201905061221260008301846121ee565b92915050565b7f4552433732313a207472616e736665722066726f6d20696e636f72726563742060008201527f6f776e6572000000000000000000000000000000000000000000000000000000602082015250565b600061227460258361183f565b915061227f82612218565b604082019050919050565b600060208201905081810360008301526122a381612267565b9050919050565b7f4552433732313a207472616e7366657220746f20746865207a65726f2061646460008201527f7265737300000000000000000000000000000000000000000000000000000000602082015250565b600061230660248361183f565b9150612311826122aa565b604082019050919050565b60006020820190508181036000830152612335816122f9565b9050919050565b7f4e487b7100000000000000000000000000000000000000000000000000000000600052601160045260246000fd5b6000612376826118ef565b9150612381836118ef565b9250828210156123945761239361233c565b5b828203905092915050565b60006123aa826118ef565b91506123b5836118ef565b9250827fffffffffffffffffffffffffffffffffffffffffffffffffffffffffffffffff038211156123ea576123e961233c565b5b828201905092915050565b7f4552433732313a20617070726f766520746f2063616c6c657200000000000000600082015250565b600061242b60198361183f565b9150612436826123f5565b602082019050919050565b6000602082019050818103600083015261245a8161241e565b9050919050565b7f4552433732313a207472616e7366657220746f206e6f6e20455243373231526560008201527f63656976657220696d706c656d656e7465720000000000000000000000000000602082015250565b60006124bd60328361183f565b91506124c882612461565b604082019050919050565b600060208201905081810360008301526124ec816124b0565b9050919050565b60006124fe826118ef565b91507fffffffffffffffffffffffffffffffffffffffffffffffffffffffffffffffff8214156125315761253061233c565b5b600182019050919050565b7f4e487b7100000000000000000000000000000000000000000000000000000000600052601260045260246000fd5b6000612576826118ef565b9150612581836118ef565b9250826125915761259061253c565b5b828204905092915050565b60006125a7826118ef565b91506125b2836118ef565b9250826125c2576125c161253c565b5b828206905092915050565b7f4e487b7100000000000000000000000000000000000000000000000000000000600052603260045260246000fd5b6000819050919050565b600061262161261c612617846125fc565b6121c2565b6118ef565b9050919050565b61263181612606565b82525050565b600060208201905061264c6000830184612628565b92915050565b600081519050919050565b600082825260208201905092915050565b600061267982612652565b612683818561265d565b9350612693818560208601611850565b61269c81611883565b840191505092915050565b60006080820190506126bc6000830187611984565b6126c96020830186611984565b6126d66040830185611a9a565b81810360608301526126e8818461266e565b905095945050505050565b600081519050612702816117a5565b92915050565b60006020828403121561271e5761271d61176f565b5b600061272c848285016126f3565b9150509291505056fea2646970667358221220e1744e5ab3774c94cc30be1b0f77e15f99a7c6a8528f47aa8f837993f04c772364736f6c63430008090033",
  "linkReferences": {},
  "deployedLinkReferences": {}
}